{
  "contractName": "NFTAuction",
  "abi": [
    {
      "inputs": [
        {
          "internalType": "address",
          "name": "",
          "type": "address"
        },
        {
          "internalType": "uint256",
          "name": "",
          "type": "uint256"
        },
        {
          "internalType": "address",
          "name": "",
          "type": "address"
        }
      ],
      "name": "bids",
      "outputs": [
        {
          "internalType": "uint256",
          "name": "",
          "type": "uint256"
        }
      ],
      "stateMutability": "view",
      "type": "function"
    },
    {
      "inputs": [
        {
          "internalType": "address",
          "name": "",
          "type": "address"
        },
        {
          "internalType": "uint256",
          "name": "",
          "type": "uint256"
        }
      ],
      "name": "tokenToAuction",
      "outputs": [
        {
          "internalType": "address",
          "name": "seller",
          "type": "address"
        },
        {
          "internalType": "uint256",
          "name": "price",
          "type": "uint256"
        },
        {
          "internalType": "uint256",
          "name": "duration",
          "type": "uint256"
        },
        {
          "internalType": "uint256",
          "name": "maxBid",
          "type": "uint256"
        },
        {
          "internalType": "address",
          "name": "maxBidder",
          "type": "address"
        },
        {
          "internalType": "bool",
          "name": "isAuctionActive",
          "type": "bool"
        }
      ],
      "stateMutability": "view",
      "type": "function"
    },
    {
      "stateMutability": "payable",
      "type": "receive"
    },
    {
      "inputs": [
        {
          "internalType": "address",
          "name": "_nftCreation",
          "type": "address"
        },
        {
          "internalType": "uint256",
          "name": "_tokenId",
          "type": "uint256"
        },
        {
          "internalType": "uint256",
          "name": "_price",
          "type": "uint256"
        },
        {
          "internalType": "uint256",
          "name": "_duration",
          "type": "uint256"
        }
      ],
      "name": "createAuction",
      "outputs": [],
      "stateMutability": "nonpayable",
      "type": "function"
    },
    {
      "inputs": [
        {
          "internalType": "address",
          "name": "_nftCreation",
          "type": "address"
        },
        {
          "internalType": "uint256",
          "name": "_tokenId",
          "type": "uint256"
        }
      ],
      "name": "bid",
      "outputs": [],
      "stateMutability": "payable",
      "type": "function"
    },
    {
      "inputs": [
        {
          "internalType": "address",
          "name": "_nftCreation",
          "type": "address"
        },
        {
          "internalType": "uint256",
          "name": "_tokenId",
          "type": "uint256"
        }
      ],
      "name": "finishAuction",
      "outputs": [],
      "stateMutability": "nonpayable",
      "type": "function"
    },
    {
      "inputs": [
        {
          "internalType": "address",
          "name": "_nftCreation",
          "type": "address"
        },
        {
          "internalType": "uint256",
          "name": "_tokenId",
          "type": "uint256"
        }
      ],
      "name": "cancelAuction",
      "outputs": [],
      "stateMutability": "nonpayable",
      "type": "function"
    },
    {
      "inputs": [
        {
          "internalType": "address",
          "name": "_nftCreation",
          "type": "address"
        },
        {
          "internalType": "uint256",
          "name": "_tokenId",
          "type": "uint256"
        }
      ],
      "name": "getAuctionDetails",
      "outputs": [
        {
          "components": [
            {
              "internalType": "address",
              "name": "seller",
              "type": "address"
            },
            {
              "internalType": "uint256",
              "name": "price",
              "type": "uint256"
            },
            {
              "internalType": "uint256",
              "name": "duration",
              "type": "uint256"
            },
            {
              "internalType": "uint256",
              "name": "maxBid",
              "type": "uint256"
            },
            {
              "internalType": "address",
              "name": "maxBidder",
              "type": "address"
            },
            {
              "internalType": "bool",
              "name": "isAuctionActive",
              "type": "bool"
            },
            {
              "internalType": "uint256[]",
              "name": "bidAmounts",
              "type": "uint256[]"
            },
            {
              "internalType": "address[]",
              "name": "bidders",
              "type": "address[]"
            }
          ],
          "internalType": "struct NFTAuction.tokenDetails",
          "name": "",
          "type": "tuple"
        }
      ],
      "stateMutability": "view",
      "type": "function"
    },
    {
      "inputs": [
        {
          "internalType": "address",
          "name": "operator",
          "type": "address"
        },
        {
          "internalType": "address",
          "name": "from",
          "type": "address"
        },
        {
          "internalType": "uint256",
          "name": "tokenId",
          "type": "uint256"
        },
        {
          "internalType": "bytes",
          "name": "data",
          "type": "bytes"
        }
      ],
      "name": "onERC721Received",
      "outputs": [
        {
          "internalType": "bytes4",
          "name": "",
          "type": "bytes4"
        }
      ],
      "stateMutability": "nonpayable",
      "type": "function"
    }
  ],
  "bytecode": "0x608060405234801561001057600080fd5b506125b3806100206000396000f3fe60806040526004361061007f5760003560e01c80637792ba5f1161004e5780637792ba5f1461014a578063859b97fe1461018c578063a3ed5be6146101b5578063dd768922146101de57610086565b80630cd87c681461008b578063150b7a02146100c857806359d667a51461010557806361beb1d71461012157610086565b3661008657005b600080fd5b34801561009757600080fd5b506100b260048036038101906100ad919061196e565b61021b565b6040516100bf9190611bfc565b60405180910390f35b3480156100d457600080fd5b506100ef60048036038101906100ea9190611c83565b610457565b6040516100fc9190611d46565b60405180910390f35b61011f600480360381019061011a919061196e565b610485565b005b34801561012d57600080fd5b5061014860048036038101906101439190611d61565b61095a565b005b34801561015657600080fd5b50610171600480360381019061016c919061196e565b610d94565b60405161018396959493929190611df5565b60405180910390f35b34801561019857600080fd5b506101b360048036038101906101ae919061196e565b610e2a565b005b3480156101c157600080fd5b506101dc60048036038101906101d7919061196e565b6111c4565b005b3480156101ea57600080fd5b5061020560048036038101906102009190611e56565b611737565b6040516102129190611ea9565b60405180910390f35b610223611769565b60008060008573ffffffffffffffffffffffffffffffffffffffff1673ffffffffffffffffffffffffffffffffffffffff1681526020019081526020016000206000848152602001908152602001600020604051806101000160405290816000820160009054906101000a900473ffffffffffffffffffffffffffffffffffffffff1673ffffffffffffffffffffffffffffffffffffffff1673ffffffffffffffffffffffffffffffffffffffff1681526020016001820154815260200160028201548152602001600382015481526020016004820160009054906101000a900473ffffffffffffffffffffffffffffffffffffffff1673ffffffffffffffffffffffffffffffffffffffff1673ffffffffffffffffffffffffffffffffffffffff1681526020016004820160149054906101000a900460ff16151515158152602001600582018054806020026020016040519081016040528092919081815260200182805480156103b457602002820191906000526020600020905b8154815260200190600101908083116103a0575b505050505081526020016006820180548060200260200160405190810160405280929190818152602001828054801561044257602002820191906000526020600020905b8160009054906101000a900473ffffffffffffffffffffffffffffffffffffffff1673ffffffffffffffffffffffffffffffffffffffff16815260200190600101908083116103f8575b50505050508152505090508091505092915050565b60007f150b7a023d4804d13e8c85fb27262cb750cf6ba9f9dd3bb30d90f482ceeb4b1f905095945050505050565b60008060008473ffffffffffffffffffffffffffffffffffffffff1673ffffffffffffffffffffffffffffffffffffffff16815260200190815260200160002060008381526020019081526020016000209050806001015434101561051f576040517f08c379a000000000000000000000000000000000000000000000000000000000815260040161051690611f47565b60405180910390fd5b8060040160149054906101000a900460ff16610570576040517f08c379a000000000000000000000000000000000000000000000000000000000815260040161056790611fb3565b60405180910390fd5b6000600160008573ffffffffffffffffffffffffffffffffffffffff1673ffffffffffffffffffffffffffffffffffffffff168152602001908152602001600020600084815260200190815260200160002060003373ffffffffffffffffffffffffffffffffffffffff1673ffffffffffffffffffffffffffffffffffffffff16815260200190815260200160002054111561070b5760003373ffffffffffffffffffffffffffffffffffffffff16600160008673ffffffffffffffffffffffffffffffffffffffff1673ffffffffffffffffffffffffffffffffffffffff168152602001908152602001600020600085815260200190815260200160002060003373ffffffffffffffffffffffffffffffffffffffff1673ffffffffffffffffffffffffffffffffffffffff168152602001908152602001600020546040516106b990612004565b60006040518083038185875af1925050503d80600081146106f6576040519150601f19603f3d011682016040523d82523d6000602084013e6106fb565b606091505b505090508061070957600080fd5b505b34600160008573ffffffffffffffffffffffffffffffffffffffff1673ffffffffffffffffffffffffffffffffffffffff168152602001908152602001600020600084815260200190815260200160002060003373ffffffffffffffffffffffffffffffffffffffff1673ffffffffffffffffffffffffffffffffffffffff1681526020019081526020016000208190555060008160050180549050036107fd57348160030181905550338160040160006101000a81548173ffffffffffffffffffffffffffffffffffffffff021916908373ffffffffffffffffffffffffffffffffffffffff1602179055506108c5565b6000600182600501805490506108139190612048565b90503482600501828154811061082c5761082b61207c565b5b906000526020600020015410610877576040517f08c379a000000000000000000000000000000000000000000000000000000000815260040161086e9061211d565b60405180910390fd5b348260030181905550338260040160006101000a81548173ffffffffffffffffffffffffffffffffffffffff021916908373ffffffffffffffffffffffffffffffffffffffff160217905550505b80600601339080600181540180825580915050600190039060005260206000200160009091909190916101000a81548173ffffffffffffffffffffffffffffffffffffffff021916908373ffffffffffffffffffffffffffffffffffffffff16021790555080600501349080600181540180825580915050600190039060005260206000200160009091909190915055505050565b600073ffffffffffffffffffffffffffffffffffffffff163373ffffffffffffffffffffffffffffffffffffffff16036109c9576040517f08c379a00000000000000000000000000000000000000000000000000000000081526004016109c0906121af565b60405180910390fd5b600073ffffffffffffffffffffffffffffffffffffffff168473ffffffffffffffffffffffffffffffffffffffff1603610a38576040517f08c379a0000000000000000000000000000000000000000000000000000000008152600401610a2f90612241565b60405180910390fd5b60008211610a7b576040517f08c379a0000000000000000000000000000000000000000000000000000000008152600401610a72906122d3565b60405180910390fd5b60008111610abe576040517f08c379a0000000000000000000000000000000000000000000000000000000008152600401610ab590612365565b60405180910390fd5b60006040518061010001604052803373ffffffffffffffffffffffffffffffffffffffff16815260200184815260200183815260200160008152602001600073ffffffffffffffffffffffffffffffffffffffff168152602001600115158152602001600067ffffffffffffffff811115610b3c57610b3b612385565b5b604051908082528060200260200182016040528015610b6a5781602001602082028036833780820191505090505b508152602001600067ffffffffffffffff811115610b8b57610b8a612385565b5b604051908082528060200260200182016040528015610bb95781602001602082028036833780820191505090505b50815250905060003390508573ffffffffffffffffffffffffffffffffffffffff166342842e0e8230886040518463ffffffff1660e01b8152600401610c01939291906123b4565b600060405180830381600087803b158015610c1b57600080fd5b505af1158015610c2f573d6000803e3d6000fd5b50505050816000808873ffffffffffffffffffffffffffffffffffffffff1673ffffffffffffffffffffffffffffffffffffffff168152602001908152602001600020600087815260200190815260200160002060008201518160000160006101000a81548173ffffffffffffffffffffffffffffffffffffffff021916908373ffffffffffffffffffffffffffffffffffffffff16021790555060208201518160010155604082015181600201556060820151816003015560808201518160040160006101000a81548173ffffffffffffffffffffffffffffffffffffffff021916908373ffffffffffffffffffffffffffffffffffffffff16021790555060a08201518160040160146101000a81548160ff02191690831515021790555060c0820151816005019080519060200190610d6b9291906117dc565b5060e0820151816006019080519060200190610d88929190611829565b50905050505050505050565b6000602052816000526040600020602052806000526040600020600091509150508060000160009054906101000a900473ffffffffffffffffffffffffffffffffffffffff16908060010154908060020154908060030154908060040160009054906101000a900473ffffffffffffffffffffffffffffffffffffffff16908060040160149054906101000a900460ff16905086565b60008060008473ffffffffffffffffffffffffffffffffffffffff1673ffffffffffffffffffffffffffffffffffffffff168152602001908152602001600020600083815260200190815260200160002090503373ffffffffffffffffffffffffffffffffffffffff168160000160009054906101000a900473ffffffffffffffffffffffffffffffffffffffff1673ffffffffffffffffffffffffffffffffffffffff1614610f0f576040517f08c379a0000000000000000000000000000000000000000000000000000000008152600401610f069061245d565b60405180910390fd5b8060040160149054906101000a900460ff16610f60576040517f08c379a0000000000000000000000000000000000000000000000000000000008152600401610f5790612515565b60405180910390fd5b60008160040160146101000a81548160ff021916908315150217905550600080600090505b826006018054905081101561112a57826006018181548110610faa57610fa961207c565b5b9060005260206000200160009054906101000a900473ffffffffffffffffffffffffffffffffffffffff1673ffffffffffffffffffffffffffffffffffffffff16600160008773ffffffffffffffffffffffffffffffffffffffff1673ffffffffffffffffffffffffffffffffffffffff168152602001908152602001600020600086815260200190815260200160002060008560060184815481106110535761105261207c565b5b9060005260206000200160009054906101000a900473ffffffffffffffffffffffffffffffffffffffff1673ffffffffffffffffffffffffffffffffffffffff1673ffffffffffffffffffffffffffffffffffffffff168152602001908152602001600020546040516110c590612004565b60006040518083038185875af1925050503d8060008114611102576040519150601f19603f3d011682016040523d82523d6000602084013e611107565b606091505b5050809250508161111757600080fd5b808061112290612535565b915050610f85565b508373ffffffffffffffffffffffffffffffffffffffff166342842e0e308460000160009054906101000a900473ffffffffffffffffffffffffffffffffffffffff16866040518463ffffffff1660e01b815260040161118c939291906123b4565b600060405180830381600087803b1580156111a657600080fd5b505af11580156111ba573d6000803e3d6000fd5b5050505050505050565b60008060008473ffffffffffffffffffffffffffffffffffffffff1673ffffffffffffffffffffffffffffffffffffffff168152602001908152602001600020600083815260200190815260200160002090503373ffffffffffffffffffffffffffffffffffffffff168160000160009054906101000a900473ffffffffffffffffffffffffffffffffffffffff1673ffffffffffffffffffffffffffffffffffffffff16146112a9576040517f08c379a00000000000000000000000000000000000000000000000000000000081526004016112a09061245d565b60405180910390fd5b8060040160149054906101000a900460ff166112fa576040517f08c379a00000000000000000000000000000000000000000000000000000000081526004016112f190612515565b60405180910390fd5b60008160040160146101000a81548160ff02191690831515021790555060008160050180549050036113be578273ffffffffffffffffffffffffffffffffffffffff166342842e0e308360000160009054906101000a900473ffffffffffffffffffffffffffffffffffffffff16856040518463ffffffff1660e01b8152600401611387939291906123b4565b600060405180830381600087803b1580156113a157600080fd5b505af11580156113b5573d6000803e3d6000fd5b50505050611732565b60008160000160009054906101000a900473ffffffffffffffffffffffffffffffffffffffff1673ffffffffffffffffffffffffffffffffffffffff16826003015460405161140c90612004565b60006040518083038185875af1925050503d8060008114611449576040519150601f19603f3d011682016040523d82523d6000602084013e61144e565b606091505b505090508061145c57600080fd5b60005b826006018054905081101561169c578260040160009054906101000a900473ffffffffffffffffffffffffffffffffffffffff1673ffffffffffffffffffffffffffffffffffffffff168360060182815481106114bf576114be61207c565b5b9060005260206000200160009054906101000a900473ffffffffffffffffffffffffffffffffffffffff1673ffffffffffffffffffffffffffffffffffffffff16146116895782600601818154811061151b5761151a61207c565b5b9060005260206000200160009054906101000a900473ffffffffffffffffffffffffffffffffffffffff1673ffffffffffffffffffffffffffffffffffffffff16600160008773ffffffffffffffffffffffffffffffffffffffff1673ffffffffffffffffffffffffffffffffffffffff168152602001908152602001600020600086815260200190815260200160002060008560060184815481106115c4576115c361207c565b5b9060005260206000200160009054906101000a900473ffffffffffffffffffffffffffffffffffffffff1673ffffffffffffffffffffffffffffffffffffffff1673ffffffffffffffffffffffffffffffffffffffff1681526020019081526020016000205460405161163690612004565b60006040518083038185875af1925050503d8060008114611673576040519150601f19603f3d011682016040523d82523d6000602084013e611678565b606091505b5050809250508161168857600080fd5b5b808061169490612535565b91505061145f565b508373ffffffffffffffffffffffffffffffffffffffff166342842e0e308460040160009054906101000a900473ffffffffffffffffffffffffffffffffffffffff16866040518463ffffffff1660e01b81526004016116fe939291906123b4565b600060405180830381600087803b15801561171857600080fd5b505af115801561172c573d6000803e3d6000fd5b50505050505b505050565b600160205282600052604060002060205281600052604060002060205280600052604060002060009250925050505481565b604051806101000160405280600073ffffffffffffffffffffffffffffffffffffffff168152602001600081526020016000815260200160008152602001600073ffffffffffffffffffffffffffffffffffffffff16815260200160001515815260200160608152602001606081525090565b828054828255906000526020600020908101928215611818579160200282015b828111156118175782518255916020019190600101906117fc565b5b50905061182591906118b3565b5090565b8280548282559060005260206000209081019282156118a2579160200282015b828111156118a15782518260006101000a81548173ffffffffffffffffffffffffffffffffffffffff021916908373ffffffffffffffffffffffffffffffffffffffff16021790555091602001919060010190611849565b5b5090506118af91906118b3565b5090565b5b808211156118cc5760008160009055506001016118b4565b5090565b600080fd5b600080fd5b600073ffffffffffffffffffffffffffffffffffffffff82169050919050565b6000611905826118da565b9050919050565b611915816118fa565b811461192057600080fd5b50565b6000813590506119328161190c565b92915050565b6000819050919050565b61194b81611938565b811461195657600080fd5b50565b60008135905061196881611942565b92915050565b60008060408385031215611985576119846118d0565b5b600061199385828601611923565b92505060206119a485828601611959565b9150509250929050565b6119b7816118fa565b82525050565b6119c681611938565b82525050565b60008115159050919050565b6119e1816119cc565b82525050565b600081519050919050565b600082825260208201905092915050565b6000819050602082019050919050565b6000611a1f83836119bd565b60208301905092915050565b6000602082019050919050565b6000611a43826119e7565b611a4d81856119f2565b9350611a5883611a03565b8060005b83811015611a89578151611a708882611a13565b9750611a7b83611a2b565b925050600181019050611a5c565b5085935050505092915050565b600081519050919050565b600082825260208201905092915050565b6000819050602082019050919050565b6000611ace83836119ae565b60208301905092915050565b6000602082019050919050565b6000611af282611a96565b611afc8185611aa1565b9350611b0783611ab2565b8060005b83811015611b38578151611b1f8882611ac2565b9750611b2a83611ada565b925050600181019050611b0b565b5085935050505092915050565b600061010083016000830151611b5e60008601826119ae565b506020830151611b7160208601826119bd565b506040830151611b8460408601826119bd565b506060830151611b9760608601826119bd565b506080830151611baa60808601826119ae565b5060a0830151611bbd60a08601826119d8565b5060c083015184820360c0860152611bd58282611a38565b91505060e083015184820360e0860152611bef8282611ae7565b9150508091505092915050565b60006020820190508181036000830152611c168184611b45565b905092915050565b600080fd5b600080fd5b600080fd5b60008083601f840112611c4357611c42611c1e565b5b8235905067ffffffffffffffff811115611c6057611c5f611c23565b5b602083019150836001820283011115611c7c57611c7b611c28565b5b9250929050565b600080600080600060808688031215611c9f57611c9e6118d0565b5b6000611cad88828901611923565b9550506020611cbe88828901611923565b9450506040611ccf88828901611959565b935050606086013567ffffffffffffffff811115611cf057611cef6118d5565b5b611cfc88828901611c2d565b92509250509295509295909350565b60007fffffffff0000000000000000000000000000000000000000000000000000000082169050919050565b611d4081611d0b565b82525050565b6000602082019050611d5b6000830184611d37565b92915050565b60008060008060808587031215611d7b57611d7a6118d0565b5b6000611d8987828801611923565b9450506020611d9a87828801611959565b9350506040611dab87828801611959565b9250506060611dbc87828801611959565b91505092959194509250565b611dd1816118fa565b82525050565b611de081611938565b82525050565b611def816119cc565b82525050565b600060c082019050611e0a6000830189611dc8565b611e176020830188611dd7565b611e246040830187611dd7565b611e316060830186611dd7565b611e3e6080830185611dc8565b611e4b60a0830184611de6565b979650505050505050565b600080600060608486031215611e6f57611e6e6118d0565b5b6000611e7d86828701611923565b9350506020611e8e86828701611959565b9250506040611e9f86828701611923565b9150509250925092565b6000602082019050611ebe6000830184611dd7565b92915050565b600082825260208201905092915050565b7f426964207072696365206973206c657373207468616e2074686520637572726560008201527f6e742041756374696f6e20707269636500000000000000000000000000000000602082015250565b6000611f31603083611ec4565b9150611f3c82611ed5565b604082019050919050565b60006020820190508181036000830152611f6081611f24565b9050919050565b7f41756374696f6e206973206e6f74206163746976650000000000000000000000600082015250565b6000611f9d601583611ec4565b9150611fa882611f67565b602082019050919050565b60006020820190508181036000830152611fcc81611f90565b9050919050565b600081905092915050565b50565b6000611fee600083611fd3565b9150611ff982611fde565b600082019050919050565b600061200f82611fe1565b9150819050919050565b7f4e487b7100000000000000000000000000000000000000000000000000000000600052601160045260246000fd5b600061205382611938565b915061205e83611938565b92508282101561207157612070612019565b5b828203905092915050565b7f4e487b7100000000000000000000000000000000000000000000000000000000600052603260045260246000fd5b7f43757272656e742062696420707269636520697320686967686572207468616e60008201527f20796f7572206269642070726963650000000000000000000000000000000000602082015250565b6000612107602f83611ec4565b9150612112826120ab565b604082019050919050565b60006020820190508181036000830152612136816120fa565b9050919050565b7f496e76616c696420416464726573732c2054686973204e4654206973206e6f7460008201527f206f776e65642062792074686973206163636f756e7420686f6c646572000000602082015250565b6000612199603d83611ec4565b91506121a48261213d565b604082019050919050565b600060208201905081810360008301526121c88161218c565b9050919050565b7f4e4654204372656174696f6e20636f6e7472616374206164647265737320697360008201527f20696e76616c6964000000000000000000000000000000000000000000000000602082015250565b600061222b602883611ec4565b9150612236826121cf565b604082019050919050565b6000602082019050818103600083015261225a8161221e565b9050919050565b7f41756374696f6e2050726963652073686f756c64206265206d6f72652074686160008201527f6e20302045746865720000000000000000000000000000000000000000000000602082015250565b60006122bd602983611ec4565b91506122c882612261565b604082019050919050565b600060208201905081810360008301526122ec816122b0565b9050919050565b7f41756374696f6e204475726174696f6e2073686f756c642062652061746c656160008201527f73742031207365636f6e64000000000000000000000000000000000000000000602082015250565b600061234f602b83611ec4565b915061235a826122f3565b604082019050919050565b6000602082019050818103600083015261237e81612342565b9050919050565b7f4e487b7100000000000000000000000000000000000000000000000000000000600052604160045260246000fd5b60006060820190506123c96000830186611dc8565b6123d66020830185611dc8565b6123e36040830184611dd7565b949350505050565b7f41756374696f6e2073686f756c6420626520656e64656420627920746865206f60008201527f776e65722077686f206861732073746172746564207468652061756374696f6e602082015250565b6000612447604083611ec4565b9150612452826123eb565b604082019050919050565b600060208201905081810360008301526124768161243a565b9050919050565b7f41756374696f6e206973206e6f74206163746976652c2045697468657220697460008201527f20697320616c726561647920656e646564206f722063616e63656c6c6564206260208201527f792073656c6c6572000000000000000000000000000000000000000000000000604082015250565b60006124ff604883611ec4565b915061250a8261247d565b606082019050919050565b6000602082019050818103600083015261252e816124f2565b9050919050565b600061254082611938565b91507fffffffffffffffffffffffffffffffffffffffffffffffffffffffffffffffff820361257257612571612019565b5b60018201905091905056fea26469706673582212200b97d037ab3eacfbc52768db8cd7263b36716380a68c1c8f18009f376217bd6464736f6c634300080d0033",
  "immutableReferences": {},
  "source": "// SPDX-License-Identifier: MIT\npragma solidity >=0.4.22 <0.9.0;\n\nimport \"@openzeppelin/contracts/token/ERC721/ERC721.sol\";\nimport \"@openzeppelin/contracts/token/ERC721/IERC721Receiver.sol\";\n\ncontract NFTAuction is IERC721Receiver \n{\n    struct tokenDetails \n    {\n        address seller;\n        uint256 price;\n        uint256 duration;\n        uint256 maxBid;\n        address maxBidder;\n        bool isAuctionActive;\n        uint256[] bidAmounts;\n        address[] bidders;\n    }\n\n    mapping(address => mapping(uint256 => tokenDetails)) public tokenToAuction;\n    mapping(address => mapping(uint256 => mapping(address => uint256))) public bids;\n    \n    function createAuction(address _nftCreation, uint256 _tokenId, uint256 _price, uint256 _duration) external \n    {\n        require(msg.sender != address(0), \"Invalid Address, This NFT is not owned by this account holder\");\n        require(_nftCreation != address(0), \"NFT Creation contract address is invalid\");\n        require(_price > 0, \"Auction Price should be more than 0 Ether\");\n        require(_duration > 0, \"Auction Duration should be atleast 1 second\");\n        tokenDetails memory _auction = tokenDetails({\n            seller: msg.sender,\n            price: uint256(_price),\n            duration: _duration,\n            maxBid: 0,\n            maxBidder: address(0),\n            isAuctionActive: true,\n            bidAmounts: new uint256[](0),\n            bidders: new address[](0)\n        });\n        address owner = msg.sender;\n        ERC721(_nftCreation).safeTransferFrom(owner, address(this), _tokenId); //temporary trasferring NFT from wallet to contract address\n        tokenToAuction[_nftCreation][_tokenId] = _auction;\n    }\n\n    function bid(address _nftCreation, uint256 _tokenId) external payable \n    {\n        tokenDetails storage auction = tokenToAuction[_nftCreation][_tokenId];\n        require(msg.value >= auction.price, \"Bid price is less than the current Auction price\");\n        require(auction.isAuctionActive, \"Auction is not active\");\n        if (bids[_nftCreation][_tokenId][msg.sender] > 0) \n        {\n            (bool success, ) = msg.sender.call{value: bids[_nftCreation][_tokenId][msg.sender]}(\"\");\n            require(success);\n        }\n        bids[_nftCreation][_tokenId][msg.sender] = msg.value;\n        if (auction.bidAmounts.length == 0) \n        {\n            auction.maxBid = msg.value;\n            auction.maxBidder = msg.sender;\n        } else \n        {\n            uint256 lastIndex = auction.bidAmounts.length - 1;\n            require(auction.bidAmounts[lastIndex] < msg.value, \"Current bid price is higher than your bid price\");\n            auction.maxBid = msg.value;\n            auction.maxBidder = msg.sender;\n        }\n        auction.bidders.push(msg.sender);\n        auction.bidAmounts.push(msg.value);\n    }\n\n    function finishAuction(address _nftCreation, uint256 _tokenId) external \n    {\n        tokenDetails storage auction = tokenToAuction[_nftCreation][_tokenId];\n        require(auction.seller == msg.sender, \"Auction should be ended by the owner who has started the auction\");\n        require(auction.isAuctionActive, \"Auction is not active, Either it is already ended or cancelled by seller\");\n        auction.isAuctionActive = false;\n        if (auction.bidAmounts.length == 0) \n        {\n            ERC721(_nftCreation).safeTransferFrom(address(this), auction.seller, _tokenId);\n        } \n        else \n        {\n            (bool success, ) = auction.seller.call{value: auction.maxBid}(\"\");\n            require(success);\n            for (uint256 i = 0; i < auction.bidders.length; i++) \n            {\n                if (auction.bidders[i] != auction.maxBidder) \n                {\n                    (success, ) = auction.bidders[i].call\n                    {\n                        value: bids[_nftCreation][_tokenId][auction.bidders[i]]\n                    }(\"\");\n                    require(success);\n                }\n            }\n            ERC721(_nftCreation).safeTransferFrom(address(this), auction.maxBidder, _tokenId);\n        }\n    }\n\n    function cancelAuction(address _nftCreation, uint256 _tokenId) external \n    {\n        tokenDetails storage auction = tokenToAuction[_nftCreation][_tokenId];\n        require(auction.seller == msg.sender, \"Auction should be ended by the owner who has started the auction\");\n        require(auction.isAuctionActive, \"Auction is not active, Either it is already ended or cancelled by seller\");\n        auction.isAuctionActive = false;\n        bool success;\n        for (uint256 i = 0; i < auction.bidders.length; i++) \n        {\n            (success, ) = auction.bidders[i].call{value: bids[_nftCreation][_tokenId][auction.bidders[i]]}(\"\");        \n            require(success);\n        }\n        ERC721(_nftCreation).safeTransferFrom(address(this), auction.seller, _tokenId);\n    }\n\n    function getAuctionDetails(address _nftCreation, uint256 _tokenId) public view returns (tokenDetails memory) \n    {\n        tokenDetails memory auction = tokenToAuction[_nftCreation][_tokenId];\n        return auction;\n    }\n\n    function onERC721Received(address operator, address from, uint256 tokenId, bytes calldata data)external override returns(bytes4) \n    {\n        return bytes4(keccak256(\"onERC721Received(address,address,uint256,bytes)\"));\n    }\n\n    receive() external payable {}\n}\n",
  "sourcePath": "E:\\College\\Eight Sem\\GitHub\\NFT-Platform\\Project\\src\\contracts\\NFTAuction.sol",
  "compiler": {
    "name": "solc",
    "version": "0.8.13+commit.abaa5c0e.Emscripten.clang"
  },
  "schemaVersion": "3.4.5",
  "updatedAt": "2022-05-09T09:35:57.390Z",
  "devdoc": {
    "kind": "dev",
    "methods": {
      "onERC721Received(address,address,uint256,bytes)": {
        "details": "Whenever an {IERC721} `tokenId` token is transferred to this contract via {IERC721-safeTransferFrom} by `operator` from `from`, this function is called. It must return its Solidity selector to confirm the token transfer. If any other value is returned or the interface is not implemented by the recipient, the transfer will be reverted. The selector can be obtained in Solidity with `IERC721Receiver.onERC721Received.selector`."
      }
    },
    "version": 1
  },
  "userdoc": {
    "kind": "user",
    "methods": {},
    "version": 1
  }
}