{
  "contractName": "NFTMarket",
  "abi": [
    {
      "inputs": [
        {
          "internalType": "address",
          "name": "_nftCreation",
          "type": "address"
        }
      ],
      "stateMutability": "nonpayable",
      "type": "constructor"
    },
    {
      "anonymous": false,
      "inputs": [
        {
          "indexed": false,
          "internalType": "uint256",
          "name": "pid",
          "type": "uint256"
        },
        {
          "indexed": false,
          "internalType": "uint256",
          "name": "id",
          "type": "uint256"
        },
        {
          "indexed": false,
          "internalType": "address",
          "name": "user",
          "type": "address"
        },
        {
          "indexed": false,
          "internalType": "uint256",
          "name": "price",
          "type": "uint256"
        },
        {
          "indexed": false,
          "internalType": "bool",
          "name": "fulfilledAndTransferred",
          "type": "bool"
        },
        {
          "indexed": false,
          "internalType": "bool",
          "name": "removedFromListing",
          "type": "bool"
        }
      ],
      "name": "EnterPrice",
      "type": "event"
    },
    {
      "anonymous": false,
      "inputs": [
        {
          "indexed": false,
          "internalType": "uint256",
          "name": "pid",
          "type": "uint256"
        },
        {
          "indexed": false,
          "internalType": "uint256",
          "name": "id",
          "type": "uint256"
        },
        {
          "indexed": false,
          "internalType": "address",
          "name": "owner",
          "type": "address"
        }
      ],
      "name": "NFTRemovedFromListing",
      "type": "event"
    },
    {
      "anonymous": false,
      "inputs": [
        {
          "indexed": false,
          "internalType": "uint256",
          "name": "pid",
          "type": "uint256"
        },
        {
          "indexed": false,
          "internalType": "uint256",
          "name": "id",
          "type": "uint256"
        },
        {
          "indexed": false,
          "internalType": "address",
          "name": "newOwner",
          "type": "address"
        }
      ],
      "name": "Sold",
      "type": "event"
    },
    {
      "stateMutability": "nonpayable",
      "type": "fallback"
    },
    {
      "inputs": [
        {
          "internalType": "address",
          "name": "",
          "type": "address"
        }
      ],
      "name": "buyerAmounts",
      "outputs": [
        {
          "internalType": "uint256",
          "name": "",
          "type": "uint256"
        }
      ],
      "stateMutability": "view",
      "type": "function",
      "constant": true
    },
    {
      "inputs": [],
      "name": "count",
      "outputs": [
        {
          "internalType": "uint256",
          "name": "",
          "type": "uint256"
        }
      ],
      "stateMutability": "view",
      "type": "function",
      "constant": true
    },
    {
      "inputs": [
        {
          "internalType": "uint256",
          "name": "",
          "type": "uint256"
        }
      ],
      "name": "prices",
      "outputs": [
        {
          "internalType": "uint256",
          "name": "pid",
          "type": "uint256"
        },
        {
          "internalType": "uint256",
          "name": "id",
          "type": "uint256"
        },
        {
          "internalType": "address",
          "name": "user",
          "type": "address"
        },
        {
          "internalType": "uint256",
          "name": "price",
          "type": "uint256"
        },
        {
          "internalType": "bool",
          "name": "fulfilledAndTransferred",
          "type": "bool"
        },
        {
          "internalType": "bool",
          "name": "removedFromListing",
          "type": "bool"
        }
      ],
      "stateMutability": "view",
      "type": "function",
      "constant": true
    },
    {
      "inputs": [
        {
          "internalType": "uint256",
          "name": "_id",
          "type": "uint256"
        },
        {
          "internalType": "uint256",
          "name": "_price",
          "type": "uint256"
        }
      ],
      "name": "enterPrice",
      "outputs": [],
      "stateMutability": "nonpayable",
      "type": "function"
    },
    {
      "inputs": [
        {
          "internalType": "uint256",
          "name": "_pid",
          "type": "uint256"
        }
      ],
      "name": "buyNFT",
      "outputs": [],
      "stateMutability": "payable",
      "type": "function",
      "payable": true
    },
    {
      "inputs": [
        {
          "internalType": "uint256",
          "name": "_pid",
          "type": "uint256"
        }
      ],
      "name": "removeNFTFromListing",
      "outputs": [],
      "stateMutability": "nonpayable",
      "type": "function"
    }
  ],
  "bytecode": "0x60806040527330b88d60a94ef82f589367700569d7445d5accb3600160006101000a81548173ffffffffffffffffffffffffffffffffffffffff021916908373ffffffffffffffffffffffffffffffffffffffff1602179055503480156200006657600080fd5b506040516200147e3803806200147e83398181016040528101906200008c91906200013e565b80600460006101000a81548173ffffffffffffffffffffffffffffffffffffffff021916908373ffffffffffffffffffffffffffffffffffffffff1602179055505062000170565b600080fd5b600073ffffffffffffffffffffffffffffffffffffffff82169050919050565b60006200010682620000d9565b9050919050565b6200011881620000f9565b81146200012457600080fd5b50565b60008151905062000138816200010d565b92915050565b600060208284031215620001575762000156620000d4565b5b6000620001678482850162000127565b91505092915050565b6112fe80620001806000396000f3fe6080604052600436106100595760003560e01c806306661abd1461006c57806351ed8288146100975780636f760fa6146100b3578063bc31c1c1146100dc578063d607aba51461011e578063ec5ce9131461015b5761005a565b5b34801561006657600080fd5b50600080fd5b34801561007857600080fd5b50610081610184565b60405161008e9190610a85565b60405180910390f35b6100b160048036038101906100ac9190610ad1565b61018a565b005b3480156100bf57600080fd5b506100da60048036038101906100d59190610ad1565b61055f565b005b3480156100e857600080fd5b5061010360048036038101906100fe9190610ad1565b6107e7565b60405161011596959493929190610b5a565b60405180910390f35b34801561012a57600080fd5b5061014560048036038101906101409190610be7565b61085d565b6040516101529190610a85565b60405180910390f35b34801561016757600080fd5b50610182600480360381019061017d9190610c14565b610875565b005b60005481565b6000600260008381526020019081526020016000209050818160000154146101e7576040517f08c379a00000000000000000000000000000000000000000000000000000000081526004016101de90610cb1565b60405180910390fd5b3373ffffffffffffffffffffffffffffffffffffffff168160020160009054906101000a900473ffffffffffffffffffffffffffffffffffffffff1673ffffffffffffffffffffffffffffffffffffffff1603610279576040517f08c379a000000000000000000000000000000000000000000000000000000000815260040161027090610d43565b60405180910390fd5b8060040160009054906101000a900460ff16156102cb576040517f08c379a00000000000000000000000000000000000000000000000000000000081526004016102c290610dd5565b60405180910390fd5b8060040160019054906101000a900460ff161561031d576040517f08c379a000000000000000000000000000000000000000000000000000000000815260040161031490610e67565b60405180910390fd5b80600301543414610363576040517f08c379a000000000000000000000000000000000000000000000000000000000815260040161035a90610ef9565b60405180910390fd5b60006064601483600301546103789190610f48565b6103829190610fd1565b905060008260020160009054906101000a900473ffffffffffffffffffffffffffffffffffffffff1690508073ffffffffffffffffffffffffffffffffffffffff166108fc83346103d39190611002565b9081150290604051600060405180830381858888f193505050501580156103fe573d6000803e3d6000fd5b50600160009054906101000a900473ffffffffffffffffffffffffffffffffffffffff1673ffffffffffffffffffffffffffffffffffffffff166108fc839081150290604051600060405180830381858888f19350505050158015610467573d6000803e3d6000fd5b50600460009054906101000a900473ffffffffffffffffffffffffffffffffffffffff1673ffffffffffffffffffffffffffffffffffffffff166323b872dd303386600101546040518463ffffffff1660e01b81526004016104cb93929190611036565b600060405180830381600087803b1580156104e557600080fd5b505af11580156104f9573d6000803e3d6000fd5b5050505060018360040160006101000a81548160ff0219169083151502179055507fb047a5353a964554348728cb040330b616a3e706a3a328f71f5640e57a435f20848460010154336040516105519392919061106d565b60405180910390a150505050565b6000600260008381526020019081526020016000209050818160000154146105bc576040517f08c379a00000000000000000000000000000000000000000000000000000000081526004016105b390610cb1565b60405180910390fd5b3373ffffffffffffffffffffffffffffffffffffffff168160020160009054906101000a900473ffffffffffffffffffffffffffffffffffffffff1673ffffffffffffffffffffffffffffffffffffffff161461064e576040517f08c379a000000000000000000000000000000000000000000000000000000000815260040161064590611116565b60405180910390fd5b8060040160009054906101000a900460ff16156106a0576040517f08c379a0000000000000000000000000000000000000000000000000000000008152600401610697906111ce565b60405180910390fd5b8060040160019054906101000a900460ff16156106f2576040517f08c379a00000000000000000000000000000000000000000000000000000000081526004016106e990611260565b60405180910390fd5b600460009054906101000a900473ffffffffffffffffffffffffffffffffffffffff1673ffffffffffffffffffffffffffffffffffffffff166323b872dd303384600101546040518463ffffffff1660e01b815260040161075593929190611036565b600060405180830381600087803b15801561076f57600080fd5b505af1158015610783573d6000803e3d6000fd5b5050505060018160040160016101000a81548160ff0219169083151502179055507fed0ca5912096fb5923fd162313645799909b847530d1a6e5cd9e3dd50fb18a53828260010154336040516107db9392919061106d565b60405180910390a15050565b60026020528060005260406000206000915090508060000154908060010154908060020160009054906101000a900473ffffffffffffffffffffffffffffffffffffffff16908060030154908060040160009054906101000a900460ff16908060040160019054906101000a900460ff16905086565b60036020528060005260406000206000915090505481565b600460009054906101000a900473ffffffffffffffffffffffffffffffffffffffff1673ffffffffffffffffffffffffffffffffffffffff166323b872dd3330856040518463ffffffff1660e01b81526004016108d493929190611036565b600060405180830381600087803b1580156108ee57600080fd5b505af1158015610902573d6000803e3d6000fd5b5050505060008081548092919061091890611280565b91905055506040518060c0016040528060005481526020018381526020013373ffffffffffffffffffffffffffffffffffffffff168152602001828152602001600015158152602001600015158152506002600080548152602001908152602001600020600082015181600001556020820151816001015560408201518160020160006101000a81548173ffffffffffffffffffffffffffffffffffffffff021916908373ffffffffffffffffffffffffffffffffffffffff1602179055506060820151816003015560808201518160040160006101000a81548160ff02191690831515021790555060a08201518160040160016101000a81548160ff0219169083151502179055509050507fde518c37a830c3fb43f8bafaa48bac0b9329b3d71dc6d1a996b0a4a8687ea3a0600054833384600080604051610a6096959493929190610b5a565b60405180910390a15050565b6000819050919050565b610a7f81610a6c565b82525050565b6000602082019050610a9a6000830184610a76565b92915050565b600080fd5b610aae81610a6c565b8114610ab957600080fd5b50565b600081359050610acb81610aa5565b92915050565b600060208284031215610ae757610ae6610aa0565b5b6000610af584828501610abc565b91505092915050565b600073ffffffffffffffffffffffffffffffffffffffff82169050919050565b6000610b2982610afe565b9050919050565b610b3981610b1e565b82525050565b60008115159050919050565b610b5481610b3f565b82525050565b600060c082019050610b6f6000830189610a76565b610b7c6020830188610a76565b610b896040830187610b30565b610b966060830186610a76565b610ba36080830185610b4b565b610bb060a0830184610b4b565b979650505050505050565b610bc481610b1e565b8114610bcf57600080fd5b50565b600081359050610be181610bbb565b92915050565b600060208284031215610bfd57610bfc610aa0565b5b6000610c0b84828501610bd2565b91505092915050565b60008060408385031215610c2b57610c2a610aa0565b5b6000610c3985828601610abc565b9250506020610c4a85828601610abc565b9150509250929050565b600082825260208201905092915050565b7f4e4654206973206e6f74206c697374656420666f722073656c6c000000000000600082015250565b6000610c9b601a83610c54565b9150610ca682610c65565b602082019050919050565b60006020820190508181036000830152610cca81610c8e565b9050919050565b7f596f752061726520616c726561647920746865206f776e6572206f662074686560008201527f204e465400000000000000000000000000000000000000000000000000000000602082015250565b6000610d2d602483610c54565b9150610d3882610cd1565b604082019050919050565b60006020820190508181036000830152610d5c81610d20565b9050919050565b7f4e465420736f6c64206279206f776e65722c20736f2069742063616e6e6f742060008201527f626520736f6c642062792073616d65206f776e657220616761696e0000000000602082015250565b6000610dbf603b83610c54565b9150610dca82610d63565b604082019050919050565b60006020820190508181036000830152610dee81610db2565b9050919050565b7f4f776e6572206861732072656d6f766564204e46542066726f6d2073656c6c2c60008201527f20736f20796f752063616e6e6f74206275790000000000000000000000000000602082015250565b6000610e51603283610c54565b9150610e5c82610df5565b604082019050919050565b60006020820190508181036000830152610e8081610e44565b9050919050565b7f54686520627579696e6720616d6f756e7420646f6573206e6f74206d6174636860008201527f207769746820746865204e465420507269636500000000000000000000000000602082015250565b6000610ee3603383610c54565b9150610eee82610e87565b604082019050919050565b60006020820190508181036000830152610f1281610ed6565b9050919050565b7f4e487b7100000000000000000000000000000000000000000000000000000000600052601160045260246000fd5b6000610f5382610a6c565b9150610f5e83610a6c565b9250817fffffffffffffffffffffffffffffffffffffffffffffffffffffffffffffffff0483118215151615610f9757610f96610f19565b5b828202905092915050565b7f4e487b7100000000000000000000000000000000000000000000000000000000600052601260045260246000fd5b6000610fdc82610a6c565b9150610fe783610a6c565b925082610ff757610ff6610fa2565b5b828204905092915050565b600061100d82610a6c565b915061101883610a6c565b92508282101561102b5761102a610f19565b5b828203905092915050565b600060608201905061104b6000830186610b30565b6110586020830185610b30565b6110656040830184610a76565b949350505050565b60006060820190506110826000830186610a76565b61108f6020830185610a76565b61109c6040830184610b30565b949350505050565b7f4e46542063616e206f6e6c792062652072656d6f7665642066726f6d2073656c60008201527f6c20627920746865206f776e6572000000000000000000000000000000000000602082015250565b6000611100602e83610c54565b915061110b826110a4565b604082019050919050565b6000602082019050818103600083015261112f816110f3565b9050919050565b7f4e465420736f6c64206279206f776e65722c20736f2069742063616e6e6f742060008201527f62652072656d6f7665642066726f6d2073656c6c2062792073616d65206f776e60208201527f657220616761696e000000000000000000000000000000000000000000000000604082015250565b60006111b8604883610c54565b91506111c382611136565b606082019050919050565b600060208201905081810360008301526111e7816111ab565b9050919050565b7f4e465420616c72656164792072656d6f7665642066726f6d2073656c6c20627960008201527f20746865206f776e657200000000000000000000000000000000000000000000602082015250565b600061124a602a83610c54565b9150611255826111ee565b604082019050919050565b600060208201905081810360008301526112798161123d565b9050919050565b600061128b82610a6c565b91507fffffffffffffffffffffffffffffffffffffffffffffffffffffffffffffffff82036112bd576112bc610f19565b5b60018201905091905056fea2646970667358221220c6efccd8710da4cf0f0a0dcb07a97abe76d1660adf7172470868920784232eef64736f6c634300080d0033",
  "immutableReferences": {},
  "source": "// SPDX-License-Identifier: MIT\r\npragma solidity >=0.4.22 <0.9.0;\r\n\r\nimport \"./NFTCreation.sol\";\r\n\r\ncontract NFTMarket \r\n{\r\n  uint public count;\r\n  address private commission= 0x30B88D60A94eF82F589367700569d7445D5ACcB3;\r\n  mapping (uint => _EnterPrice) public prices;\r\n  mapping (address => uint) public buyerAmounts;\r\n  NFTCreation nftCreation;\r\n\r\n  struct _EnterPrice \r\n  {\r\n    uint256 pid;\r\n    uint256 id;\r\n    address user;\r\n    uint256 price;\r\n    bool fulfilledAndTransferred;\r\n    bool removedFromListing;\r\n  }\r\n\r\n  event EnterPrice(\r\n    uint256 pid,\r\n    uint256 id,\r\n    address user,\r\n    uint256 price,\r\n    bool fulfilledAndTransferred,\r\n    bool removedFromListing\r\n  );\r\n\r\n  event Sold(uint pid, uint id, address newOwner);\r\n  event NFTRemovedFromListing(uint pid, uint id, address owner);\r\n\r\n  constructor(address _nftCreation) \r\n  {\r\n    nftCreation = NFTCreation(_nftCreation);\r\n  }\r\n\r\n  function enterPrice(uint _id, uint _price) public \r\n  {\r\n    nftCreation.transferFrom(msg.sender, address(this), _id);\r\n    count ++;\r\n    prices[count] = _EnterPrice(count, _id, msg.sender, _price, false, false);\r\n    emit EnterPrice(count, _id, msg.sender, _price, false, false);\r\n  }\r\n\r\n  function buyNFT(uint _pid) public payable \r\n  {\r\n    _EnterPrice storage _nftPrice = prices[_pid];\r\n    require(_nftPrice.pid == _pid, \"NFT is not listed for sell\");\r\n    require(_nftPrice.user != msg.sender, \"You are already the owner of the NFT\");\r\n    require(!_nftPrice.fulfilledAndTransferred, \"NFT sold by owner, so it cannot be sold by same owner again\");\r\n    require(!_nftPrice.removedFromListing, \"Owner has removed NFT from sell, so you cannot buy\");\r\n    require(msg.value == _nftPrice.price, \"The buying amount does not match with the NFT Price\");\r\n    uint pft = (_nftPrice.price)* 20/100;\r\n    address payable seller= payable(_nftPrice.user);\r\n    seller.transfer(msg.value-pft);\r\n    payable(commission).transfer(pft);\r\n    nftCreation.transferFrom(address(this), msg.sender, _nftPrice.id);\r\n    _nftPrice.fulfilledAndTransferred = true;\r\n    emit Sold(_pid, _nftPrice.id, msg.sender);\r\n  }\r\n\r\n  function removeNFTFromListing(uint _pid) public \r\n  {\r\n    _EnterPrice storage _nftPrice = prices[_pid];\r\n    require(_nftPrice.pid == _pid, \"NFT is not listed for sell\");\r\n    require(_nftPrice.user == msg.sender, \"NFT can only be removed from sell by the owner\");\r\n    require(!_nftPrice.fulfilledAndTransferred, \"NFT sold by owner, so it cannot be removed from sell by same owner again\");\r\n    require(!_nftPrice.removedFromListing, \"NFT already removed from sell by the owner\");\r\n    nftCreation.transferFrom(address(this), msg.sender, _nftPrice.id);\r\n    _nftPrice.removedFromListing = true;\r\n    emit NFTRemovedFromListing(_pid, _nftPrice.id, msg.sender);\r\n  }\r\n  \r\n  fallback () external \r\n  {\r\n    revert();\r\n  }\r\n}",
  "sourcePath": "E:\\College\\Eight Sem\\GitHub\\NFT-Platform\\Project\\src\\contracts\\NFTMarket.sol",
  "compiler": {
    "name": "solc",
    "version": "0.8.13+commit.abaa5c0e.Emscripten.clang"
  },
  "schemaVersion": "3.4.5",
  "updatedAt": "2022-05-09T09:36:02.362Z",
  "networkType": "ethereum",
  "devdoc": {
    "kind": "dev",
    "methods": {},
    "version": 1
  },
  "userdoc": {
    "kind": "user",
    "methods": {},
    "version": 1
  }
}